{
    "_format": "hh-sol-artifact-1",
    "contractName": "ButtsOnChain",
    "sourceName": "contracts/ButtsOnChain.sol",
    "abi": [
        {
            "inputs": [
                {
                    "internalType": "address",
                    "name": "_proxyRegistryAddress",
                    "type": "address"
                }
            ],
            "stateMutability": "nonpayable",
            "type": "constructor"
        },
        {
            "anonymous": false,
            "inputs": [
                {
                    "indexed": true,
                    "internalType": "address",
                    "name": "owner",
                    "type": "address"
                },
                {
                    "indexed": true,
                    "internalType": "address",
                    "name": "approved",
                    "type": "address"
                },
                {
                    "indexed": true,
                    "internalType": "uint256",
                    "name": "tokenId",
                    "type": "uint256"
                }
            ],
            "name": "Approval",
            "type": "event"
        },
        {
            "anonymous": false,
            "inputs": [
                {
                    "indexed": true,
                    "internalType": "address",
                    "name": "owner",
                    "type": "address"
                },
                {
                    "indexed": true,
                    "internalType": "address",
                    "name": "operator",
                    "type": "address"
                },
                {
                    "indexed": false,
                    "internalType": "bool",
                    "name": "approved",
                    "type": "bool"
                }
            ],
            "name": "ApprovalForAll",
            "type": "event"
        },
        {
            "anonymous": false,
            "inputs": [
                {
                    "indexed": true,
                    "internalType": "address",
                    "name": "previousOwner",
                    "type": "address"
                },
                {
                    "indexed": true,
                    "internalType": "address",
                    "name": "newOwner",
                    "type": "address"
                }
            ],
            "name": "OwnershipTransferred",
            "type": "event"
        },
        {
            "anonymous": false,
            "inputs": [
                {
                    "indexed": true,
                    "internalType": "address",
                    "name": "from",
                    "type": "address"
                },
                {
                    "indexed": true,
                    "internalType": "address",
                    "name": "to",
                    "type": "address"
                },
                {
                    "indexed": true,
                    "internalType": "uint256",
                    "name": "tokenId",
                    "type": "uint256"
                }
            ],
            "name": "Transfer",
            "type": "event"
        },
        {
            "inputs": [],
            "name": "MAX_TOKENS",
            "outputs": [
                {
                    "internalType": "uint256",
                    "name": "",
                    "type": "uint256"
                }
            ],
            "stateMutability": "view",
            "type": "function"
        },
        {
            "inputs": [
                {
                    "internalType": "address",
                    "name": "to",
                    "type": "address"
                },
                {
                    "internalType": "uint256",
                    "name": "tokenId",
                    "type": "uint256"
                }
            ],
            "name": "approve",
            "outputs": [],
            "stateMutability": "nonpayable",
            "type": "function"
        },
        {
            "inputs": [
                {
                    "internalType": "address",
                    "name": "owner",
                    "type": "address"
                }
            ],
            "name": "balanceOf",
            "outputs": [
                {
                    "internalType": "uint256",
                    "name": "",
                    "type": "uint256"
                }
            ],
            "stateMutability": "view",
            "type": "function"
        },
        {
            "inputs": [
                {
                    "internalType": "uint256",
                    "name": "numberOfTokens",
                    "type": "uint256"
                }
            ],
            "name": "claim",
            "outputs": [],
            "stateMutability": "nonpayable",
            "type": "function"
        },
        {
            "inputs": [],
            "name": "claimActive",
            "outputs": [
                {
                    "internalType": "bool",
                    "name": "",
                    "type": "bool"
                }
            ],
            "stateMutability": "view",
            "type": "function"
        },
        {
            "inputs": [
                {
                    "internalType": "uint256",
                    "name": "tokenId",
                    "type": "uint256"
                }
            ],
            "name": "createTokenIdButt",
            "outputs": [
                {
                    "components": [
                        {
                            "internalType": "uint16",
                            "name": "backgroundColor",
                            "type": "uint16"
                        },
                        {
                            "internalType": "uint16",
                            "name": "buttCrackType",
                            "type": "uint16"
                        },
                        {
                            "internalType": "uint16",
                            "name": "buttType",
                            "type": "uint16"
                        }
                    ],
                    "internalType": "struct ButtsOnChain.Butt",
                    "name": "",
                    "type": "tuple"
                }
            ],
            "stateMutability": "view",
            "type": "function"
        },
        {
            "inputs": [],
            "name": "freeButts",
            "outputs": [
                {
                    "internalType": "uint256",
                    "name": "",
                    "type": "uint256"
                }
            ],
            "stateMutability": "view",
            "type": "function"
        },
        {
            "inputs": [
                {
                    "internalType": "uint256",
                    "name": "tokenId",
                    "type": "uint256"
                }
            ],
            "name": "getApproved",
            "outputs": [
                {
                    "internalType": "address",
                    "name": "",
                    "type": "address"
                }
            ],
            "stateMutability": "view",
            "type": "function"
        },
        {
            "inputs": [],
            "name": "getBalance",
            "outputs": [
                {
                    "internalType": "uint256",
                    "name": "",
                    "type": "uint256"
                }
            ],
            "stateMutability": "view",
            "type": "function"
        },
        {
            "inputs": [
                {
                    "components": [
                        {
                            "internalType": "uint16",
                            "name": "backgroundColor",
                            "type": "uint16"
                        },
                        {
                            "internalType": "uint16",
                            "name": "buttCrackType",
                            "type": "uint16"
                        },
                        {
                            "internalType": "uint16",
                            "name": "buttType",
                            "type": "uint16"
                        }
                    ],
                    "internalType": "struct ButtsOnChain.Butt",
                    "name": "butt",
                    "type": "tuple"
                }
            ],
            "name": "getTokenIdButtMetadata",
            "outputs": [
                {
                    "internalType": "string",
                    "name": "metadata",
                    "type": "string"
                }
            ],
            "stateMutability": "view",
            "type": "function"
        },
        {
            "inputs": [
                {
                    "components": [
                        {
                            "internalType": "uint16",
                            "name": "backgroundColor",
                            "type": "uint16"
                        },
                        {
                            "internalType": "uint16",
                            "name": "buttCrackType",
                            "type": "uint16"
                        },
                        {
                            "internalType": "uint16",
                            "name": "buttType",
                            "type": "uint16"
                        }
                    ],
                    "internalType": "struct ButtsOnChain.Butt",
                    "name": "butt",
                    "type": "tuple"
                }
            ],
            "name": "getTokenIdButtSvg",
            "outputs": [
                {
                    "internalType": "string",
                    "name": "svg",
                    "type": "string"
                }
            ],
            "stateMutability": "view",
            "type": "function"
        },
        {
            "inputs": [
                {
                    "internalType": "address",
                    "name": "owner",
                    "type": "address"
                },
                {
                    "internalType": "address",
                    "name": "operator",
                    "type": "address"
                }
            ],
            "name": "isApprovedForAll",
            "outputs": [
                {
                    "internalType": "bool",
                    "name": "",
                    "type": "bool"
                }
            ],
            "stateMutability": "view",
            "type": "function"
        },
        {
            "inputs": [],
            "name": "maxMint",
            "outputs": [
                {
                    "internalType": "uint256",
                    "name": "",
                    "type": "uint256"
                }
            ],
            "stateMutability": "view",
            "type": "function"
        },
        {
            "inputs": [],
            "name": "maxSupply",
            "outputs": [
                {
                    "internalType": "uint256",
                    "name": "",
                    "type": "uint256"
                }
            ],
            "stateMutability": "view",
            "type": "function"
        },
        {
            "inputs": [
                {
                    "internalType": "uint256",
                    "name": "numberOfTokens",
                    "type": "uint256"
                }
            ],
            "name": "mint",
            "outputs": [],
            "stateMutability": "payable",
            "type": "function"
        },
        {
            "inputs": [],
            "name": "mintActive",
            "outputs": [
                {
                    "internalType": "bool",
                    "name": "",
                    "type": "bool"
                }
            ],
            "stateMutability": "view",
            "type": "function"
        },
        {
            "inputs": [],
            "name": "mintPrice",
            "outputs": [
                {
                    "internalType": "uint256",
                    "name": "",
                    "type": "uint256"
                }
            ],
            "stateMutability": "view",
            "type": "function"
        },
        {
            "inputs": [],
            "name": "name",
            "outputs": [
                {
                    "internalType": "string",
                    "name": "",
                    "type": "string"
                }
            ],
            "stateMutability": "view",
            "type": "function"
        },
        {
            "inputs": [],
            "name": "openSeaProxyActive",
            "outputs": [
                {
                    "internalType": "bool",
                    "name": "",
                    "type": "bool"
                }
            ],
            "stateMutability": "view",
            "type": "function"
        },
        {
            "inputs": [],
            "name": "owner",
            "outputs": [
                {
                    "internalType": "address",
                    "name": "",
                    "type": "address"
                }
            ],
            "stateMutability": "view",
            "type": "function"
        },
        {
            "inputs": [
                {
                    "internalType": "uint256",
                    "name": "numberOfTokens",
                    "type": "uint256"
                }
            ],
            "name": "ownerClaim",
            "outputs": [],
            "stateMutability": "nonpayable",
            "type": "function"
        },
        {
            "inputs": [
                {
                    "internalType": "uint256",
                    "name": "tokenId",
                    "type": "uint256"
                }
            ],
            "name": "ownerOf",
            "outputs": [
                {
                    "internalType": "address",
                    "name": "",
                    "type": "address"
                }
            ],
            "stateMutability": "view",
            "type": "function"
        },
        {
            "inputs": [],
            "name": "proxyRegistryAddress",
            "outputs": [
                {
                    "internalType": "address",
                    "name": "",
                    "type": "address"
                }
            ],
            "stateMutability": "view",
            "type": "function"
        },
        {
            "inputs": [
                {
                    "internalType": "address",
                    "name": "",
                    "type": "address"
                }
            ],
            "name": "proxyToApproved",
            "outputs": [
                {
                    "internalType": "bool",
                    "name": "",
                    "type": "bool"
                }
            ],
            "stateMutability": "view",
            "type": "function"
        },
        {
            "inputs": [],
            "name": "reduceSupply",
            "outputs": [],
            "stateMutability": "nonpayable",
            "type": "function"
        },
        {
            "inputs": [],
            "name": "renounceOwnership",
            "outputs": [],
            "stateMutability": "nonpayable",
            "type": "function"
        },
        {
            "inputs": [
                {
                    "internalType": "address",
                    "name": "from",
                    "type": "address"
                },
                {
                    "internalType": "address",
                    "name": "to",
                    "type": "address"
                },
                {
                    "internalType": "uint256",
                    "name": "tokenId",
                    "type": "uint256"
                }
            ],
            "name": "safeTransferFrom",
            "outputs": [],
            "stateMutability": "nonpayable",
            "type": "function"
        },
        {
            "inputs": [
                {
                    "internalType": "address",
                    "name": "from",
                    "type": "address"
                },
                {
                    "internalType": "address",
                    "name": "to",
                    "type": "address"
                },
                {
                    "internalType": "uint256",
                    "name": "tokenId",
                    "type": "uint256"
                },
                {
                    "internalType": "bytes",
                    "name": "_data",
                    "type": "bytes"
                }
            ],
            "name": "safeTransferFrom",
            "outputs": [],
            "stateMutability": "nonpayable",
            "type": "function"
        },
        {
            "inputs": [
                {
                    "internalType": "address",
                    "name": "operator",
                    "type": "address"
                },
                {
                    "internalType": "bool",
                    "name": "approved",
                    "type": "bool"
                }
            ],
            "name": "setApprovalForAll",
            "outputs": [],
            "stateMutability": "nonpayable",
            "type": "function"
        },
        {
            "inputs": [
                {
                    "internalType": "uint256",
                    "name": "newFreeButts",
                    "type": "uint256"
                }
            ],
            "name": "setFreeButts",
            "outputs": [],
            "stateMutability": "nonpayable",
            "type": "function"
        },
        {
            "inputs": [
                {
                    "internalType": "bytes4",
                    "name": "interfaceId",
                    "type": "bytes4"
                }
            ],
            "name": "supportsInterface",
            "outputs": [
                {
                    "internalType": "bool",
                    "name": "",
                    "type": "bool"
                }
            ],
            "stateMutability": "view",
            "type": "function"
        },
        {
            "inputs": [],
            "name": "symbol",
            "outputs": [
                {
                    "internalType": "string",
                    "name": "",
                    "type": "string"
                }
            ],
            "stateMutability": "view",
            "type": "function"
        },
        {
            "inputs": [],
            "name": "toggleClaim",
            "outputs": [],
            "stateMutability": "nonpayable",
            "type": "function"
        },
        {
            "inputs": [],
            "name": "toggleMint",
            "outputs": [],
            "stateMutability": "nonpayable",
            "type": "function"
        },
        {
            "inputs": [
                {
                    "internalType": "uint256",
                    "name": "index",
                    "type": "uint256"
                }
            ],
            "name": "tokenByIndex",
            "outputs": [
                {
                    "internalType": "uint256",
                    "name": "",
                    "type": "uint256"
                }
            ],
            "stateMutability": "view",
            "type": "function"
        },
        {
            "inputs": [
                {
                    "internalType": "address",
                    "name": "owner",
                    "type": "address"
                },
                {
                    "internalType": "uint256",
                    "name": "index",
                    "type": "uint256"
                }
            ],
            "name": "tokenOfOwnerByIndex",
            "outputs": [
                {
                    "internalType": "uint256",
                    "name": "",
                    "type": "uint256"
                }
            ],
            "stateMutability": "view",
            "type": "function"
        },
        {
            "inputs": [
                {
                    "internalType": "uint256",
                    "name": "tokenId",
                    "type": "uint256"
                }
            ],
            "name": "tokenURI",
            "outputs": [
                {
                    "internalType": "string",
                    "name": "",
                    "type": "string"
                }
            ],
            "stateMutability": "view",
            "type": "function"
        },
        {
            "inputs": [],
            "name": "totalSupply",
            "outputs": [
                {
                    "internalType": "uint256",
                    "name": "",
                    "type": "uint256"
                }
            ],
            "stateMutability": "view",
            "type": "function"
        },
        {
            "inputs": [
                {
                    "internalType": "address",
                    "name": "from",
                    "type": "address"
                },
                {
                    "internalType": "address",
                    "name": "to",
                    "type": "address"
                },
                {
                    "internalType": "uint256",
                    "name": "tokenId",
                    "type": "uint256"
                }
            ],
            "name": "transferFrom",
            "outputs": [],
            "stateMutability": "nonpayable",
            "type": "function"
        },
        {
            "inputs": [
                {
                    "internalType": "address",
                    "name": "newOwner",
                    "type": "address"
                }
            ],
            "name": "transferOwnership",
            "outputs": [],
            "stateMutability": "nonpayable",
            "type": "function"
        },
        {
            "inputs": [],
            "name": "withdraw",
            "outputs": [],
            "stateMutability": "nonpayable",
            "type": "function"
        }
    ],
    "bytecode": "0x60806040526064600c55610d05600d5566764e2c6f054000600e55612710600f556040518061016001604052806040518060400160405280600781526020017f233141333230310000000000000000000000000000000000000000000000000081525081526020016040518060400160405280600781526020017f234646464230410000000000000000000000000000000000000000000000000081525081526020016040518060400160405280600781526020017f234235464230340000000000000000000000000000000000000000000000000081525081526020016040518060400160405280600781526020017f233939464330360000000000000000000000000000000000000000000000000081525081526020016040518060400160405280600781526020017f233745434530360000000000000000000000000000000000000000000000000081525081526020016040518060400160405280600781526020017f233439413131370000000000000000000000000000000000000000000000000081525081526020016040518060400160405280600781526020017f233241413530380000000000000000000000000000000000000000000000000081525081526020016040518060400160405280600781526020017f233331394530430000000000000000000000000000000000000000000000000081525081526020016040518060400160405280600781526020017f233336364330300000000000000000000000000000000000000000000000000081525081526020016040518060400160405280600781526020017f233037324330320000000000000000000000000000000000000000000000000081525081526020016040518060400160405280600781526020017f2332333436303600000000000000000000000000000000000000000000000000815250815250601d90600b620002c592919062001281565b50348015620002d357600080fd5b50604051620080a9380380620080a98339818101604052810190620002f9919062001630565b6040518060400160405280600e81526020017f4275747473204f6e20436861696e0000000000000000000000000000000000008152506040518060400160405280600481526020017f425554540000000000000000000000000000000000000000000000000000000081525081600090805190602001906200037d929190620012e8565b50806001908051906020019062000396929190620012e8565b505050620003b9620003ad62000eda60201b60201c565b62000ee260201b60201c565b620003d0600b62000fa860201b62001fc81760201c565b60405180610100016040528061232861ffff168152602001611f4061ffff16815260200161138861ffff168152602001600161ffff168152602001600261ffff168152602001600361ffff168152602001600461ffff168152602001600561ffff16815250601560006006811062000471577f4e487b7100000000000000000000000000000000000000000000000000000000600052603260045260246000fd5b019060086200048292919062001379565b50604051806080016040528061232861ffff16815260200161138861ffff1681526020016103e861ffff168152602001606461ffff168152506015600160068110620004f7577f4e487b7100000000000000000000000000000000000000000000000000000000600052603260045260246000fd5b01906004620005089291906200142a565b50604051806060016040528061232861ffff16815260200161138861ffff16815260200161034a61ffff16815250601560026006811062000572577f4e487b7100000000000000000000000000000000000000000000000000000000600052603260045260246000fd5b0190600362000583929190620014db565b5080601b60006101000a81548173ffffffffffffffffffffffffffffffffffffffff021916908373ffffffffffffffffffffffffffffffffffffffff160217905550620009ff60405180610100016040528060405180604001604052806040518060400160405280600781526020017f233030303030300000000000000000000000000000000000000000000000000081525081526020016040518060400160405280600581526020017f477265656e000000000000000000000000000000000000000000000000000000815250815250815260200160405180604001604052806040518060400160405280600781526020017f236435626164610000000000000000000000000000000000000000000000000081525081526020016040518060400160405280600681526020017f507572706c650000000000000000000000000000000000000000000000000000815250815250815260200160405180604001604052806040518060400160405280600781526020017f236563633164620000000000000000000000000000000000000000000000000081525081526020016040518060400160405280600481526020017f50696e6b00000000000000000000000000000000000000000000000000000000815250815250815260200160405180604001604052806040518060400160405280600781526020017f236533633239650000000000000000000000000000000000000000000000000081525081526020016040518060400160405280600681526020017f4f72616e67650000000000000000000000000000000000000000000000000000815250815250815260200160405180604001604052806040518060400160405280600781526020017f233963643764350000000000000000000000000000000000000000000000000081525081526020016040518060400160405280600981526020017f54757271756f6973650000000000000000000000000000000000000000000000815250815250815260200160405180604001604052806040518060400160405280600781526020017f236661663138350000000000000000000000000000000000000000000000000081525081526020016040518060400160405280600681526020017f59656c6c6f770000000000000000000000000000000000000000000000000000815250815250815260200160405180604001604052806040518060400160405280600781526020017f236230643966340000000000000000000000000000000000000000000000000081525081526020016040518060400160405280600481526020017f426c756500000000000000000000000000000000000000000000000000000000815250815250815260200160405180604001604052806040518060400160405280600781526020017f233333333333330000000000000000000000000000000000000000000000000081525081526020016040518060400160405280600581526020017f426c61636b00000000000000000000000000000000000000000000000000000081525081525081525062000fbe60201b60201c565b62000b50604051806060016040528060405180604001604052806040518060400160405280600681526020017f4e6f726d616c0000000000000000000000000000000000000000000000000000815250815260200160405180608001604052806060815260200162007cbc60609139815250815260200160405180604001604052806040518060400160405280600581526020017f526967687400000000000000000000000000000000000000000000000000000081525081526020016040518060e0016040528060a781526020016200780d60a79139815250815260200160405180604001604052806040518060400160405280600481526020017f54616c6c000000000000000000000000000000000000000000000000000000008152508152602001604051806080016040528060508152602001620078b4605091398152508152506200109560201b60201c565b62000ed3604051806080016040528060405180608001604052806040518060400160405280600681526020017f4e6f726d616c00000000000000000000000000000000000000000000000000008152508152602001604051806103c0016040528061038d815260200162007d1c61038d913981526020016040518060400160405280600781526020017f233635626334380000000000000000000000000000000000000000000000000081525081526020016040518060400160405280600781526020017f2335363765333900000000000000000000000000000000000000000000000000815250815250815260200160405180608001604052806040518060400160405280600681526020017f4e6172726f7700000000000000000000000000000000000000000000000000008152508152602001604051806103e001604052806103b88152602001620079046103b8913981526020016040518060400160405280600781526020017f233765613236620000000000000000000000000000000000000000000000000081525081526020016040518060400160405280600781526020017f2334633631343100000000000000000000000000000000000000000000000000815250815250815260200160405180608001604052806040518060400160405280600481526020017f576964650000000000000000000000000000000000000000000000000000000081525081526020016040518060200160405280600081525081526020016040518060400160405280600781526020017f236434616633340000000000000000000000000000000000000000000000000081525081526020016040518060400160405280600781526020017f2361303765326400000000000000000000000000000000000000000000000000815250815250815260200160405180608001604052806040518060400160405280600581526020017f416c69656e00000000000000000000000000000000000000000000000000000081525081526020016040518060200160405280600081525081526020016040518060400160405280600781526020017f233863623062300000000000000000000000000000000000000000000000000081525081526020016040518060400160405280600781526020017f23353738383838000000000000000000000000000000000000000000000000008152508152508152506200116c60201b60201c565b506200177a565b600033905090565b6000600a60009054906101000a900473ffffffffffffffffffffffffffffffffffffffff16905081600a60006101000a81548173ffffffffffffffffffffffffffffffffffffffff021916908373ffffffffffffffffffffffffffffffffffffffff1602179055508173ffffffffffffffffffffffffffffffffffffffff168173ffffffffffffffffffffffffffffffffffffffff167f8be0079c531659141344cd1fd0a4f28419497f9722a3daafe3b4186f6b6457e060405160405180910390a35050565b6001816000016000828254019250508190555050565b60005b60088160ff16101562001091576012828260ff16600881106200100d577f4e487b7100000000000000000000000000000000000000000000000000000000600052603260045260246000fd5b60200201519080600181540180825580915050600190039060005260206000209060020201600090919091909150600082015181600001908051906020019062001059929190620012e8565b50602082015181600101908051906020019062001078929190620012e8565b50505080806200108890620016d3565b91505062000fc1565b5050565b60005b60038160ff16101562001168576014828260ff1660038110620010e4577f4e487b7100000000000000000000000000000000000000000000000000000000600052603260045260246000fd5b60200201519080600181540180825580915050600190039060005260206000209060020201600090919091909150600082015181600001908051906020019062001130929190620012e8565b5060208201518160010190805190602001906200114f929190620012e8565b50505080806200115f90620016d3565b91505062001098565b5050565b60005b60048160ff1610156200127d576013828260ff1660048110620011bb577f4e487b7100000000000000000000000000000000000000000000000000000000600052603260045260246000fd5b60200201519080600181540180825580915050600190039060005260206000209060040201600090919091909150600082015181600001908051906020019062001207929190620012e8565b50602082015181600101908051906020019062001226929190620012e8565b50604082015181600201908051906020019062001245929190620012e8565b50606082015181600301908051906020019062001264929190620012e8565b50505080806200127490620016d3565b9150506200116f565b5050565b828054828255906000526020600020908101928215620012d5579160200282015b82811115620012d4578251829080519060200190620012c3929190620012e8565b5091602001919060010190620012a2565b5b509050620012e491906200158c565b5090565b828054620012f6906200169d565b90600052602060002090601f0160209004810192826200131a576000855562001366565b82601f106200133557805160ff191683800117855562001366565b8280016001018555821562001366579182015b828111156200136557825182559160200191906001019062001348565b5b509050620013759190620015b4565b5090565b82805482825590600052602060002090600f01601090048101928215620014175791602002820160005b83821115620013e557835183826101000a81548161ffff021916908361ffff1602179055509260200192600201602081600101049283019260010302620013a3565b8015620014155782816101000a81549061ffff0219169055600201602081600101049283019260010302620013e5565b505b509050620014269190620015b4565b5090565b82805482825590600052602060002090600f01601090048101928215620014c85791602002820160005b838211156200149657835183826101000a81548161ffff021916908361ffff160217905550926020019260020160208160010104928301926001030262001454565b8015620014c65782816101000a81549061ffff021916905560020160208160010104928301926001030262001496565b505b509050620014d79190620015b4565b5090565b82805482825590600052602060002090600f01601090048101928215620015795791602002820160005b838211156200154757835183826101000a81548161ffff021916908361ffff160217905550926020019260020160208160010104928301926001030262001505565b8015620015775782816101000a81549061ffff021916905560020160208160010104928301926001030262001547565b505b509050620015889190620015b4565b5090565b5b80821115620015b05760008181620015a69190620015d3565b506001016200158d565b5090565b5b80821115620015cf576000816000905550600101620015b5565b5090565b508054620015e1906200169d565b6000825580601f10620015f5575062001616565b601f016020900490600052602060002090810190620016159190620015b4565b5b50565b6000815190506200162a8162001760565b92915050565b6000602082840312156200164357600080fd5b6000620016538482850162001619565b91505092915050565b6000620016698262001670565b9050919050565b600073ffffffffffffffffffffffffffffffffffffffff82169050919050565b600060ff82169050919050565b60006002820490506001821680620016b657607f821691505b60208210811415620016cd57620016cc62001731565b5b50919050565b6000620016e08262001690565b915060ff821415620016f757620016f662001702565b5b600182019050919050565b7f4e487b7100000000000000000000000000000000000000000000000000000000600052601160045260246000fd5b7f4e487b7100000000000000000000000000000000000000000000000000000000600052602260045260246000fd5b6200176b816200165c565b81146200177757600080fd5b50565b616083806200178a6000396000f3fe60806040526004361061025c5760003560e01c80637501f74111610144578063c87b56dd116100b6578063d5abeb011161007a578063d5abeb01146108ed578063dc7cb20a14610918578063e104f60c14610943578063e985e9c51461095a578063f2fde38b14610997578063f47c84c5146109c05761025c565b8063c87b56dd1461082c578063cd7c032614610869578063d112974514610894578063d3dd5fe0146108ab578063d4a6a2fd146108c25761025c565b80639e043140116101085780639e0431401461072d578063a0712d6814610758578063a22cb46514610774578063ac291aed1461079d578063b51169f3146107da578063b88d4fde146108035761025c565b80637501f74114610646578063849f3f96146106715780638da5cb5b1461069a57806395d89b41146106c55780639dc38c7d146106f05761025c565b8063379607f5116101dd578063434f48c4116101a1578063434f48c4146105245780634f6ccce71461054d5780636352211e1461058a5780636817c76c146105c757806370a08231146105f2578063715018a61461062f5761025c565b8063379607f5146104415780633ccfd60b1461046a5780633e81a5b91461048157806342842e0e146104be57806343392a9e146104e75761025c565b806318160ddd1161022457806318160ddd1461035a5780631fd60fd81461038557806323b872dd146103b057806325fd90f3146103d95780632f745c59146104045761025c565b806301ffc9a71461026157806306fdde031461029e578063081812fc146102c9578063095ea7b31461030657806312065fe01461032f575b600080fd5b34801561026d57600080fd5b5061028860048036038101906102839190613b33565b6109eb565b60405161029591906156de565b60405180910390f35b3480156102aa57600080fd5b506102b3610a65565b6040516102c091906156f9565b60405180910390f35b3480156102d557600080fd5b506102f060048036038101906102eb9190613bae565b610af7565b6040516102fd9190615677565b60405180910390f35b34801561031257600080fd5b5061032d60048036038101906103289190613af7565b610b7c565b005b34801561033b57600080fd5b50610344610c94565b6040516103519190615ab6565b60405180910390f35b34801561036657600080fd5b5061036f610c9c565b60405161037c9190615ab6565b60405180910390f35b34801561039157600080fd5b5061039a610ca9565b6040516103a791906156de565b60405180910390f35b3480156103bc57600080fd5b506103d760048036038101906103d291906139f1565b610cbc565b005b3480156103e557600080fd5b506103ee610d1c565b6040516103fb91906156de565b60405180910390f35b34801561041057600080fd5b5061042b60048036038101906104269190613af7565b610d2f565b6040516104389190615ab6565b60405180910390f35b34801561044d57600080fd5b5061046860048036038101906104639190613bae565b610dd4565b005b34801561047657600080fd5b5061047f610e86565b005b34801561048d57600080fd5b506104a860048036038101906104a39190613bae565b610f52565b6040516104b59190615a9b565b60405180910390f35b3480156104ca57600080fd5b506104e560048036038101906104e091906139f1565b61104b565b005b3480156104f357600080fd5b5061050e60048036038101906105099190613b85565b61106b565b60405161051b91906156f9565b60405180910390f35b34801561053057600080fd5b5061054b60048036038101906105469190613bae565b61119d565b005b34801561055957600080fd5b50610574600480360381019061056f9190613bae565b611225565b6040516105819190615ab6565b60405180910390f35b34801561059657600080fd5b506105b160048036038101906105ac9190613bae565b6112bc565b6040516105be9190615677565b60405180910390f35b3480156105d357600080fd5b506105dc61136e565b6040516105e99190615ab6565b60405180910390f35b3480156105fe57600080fd5b506106196004803603810190610614919061398c565b611379565b6040516106269190615ab6565b60405180910390f35b34801561063b57600080fd5b50610644611431565b005b34801561065257600080fd5b5061065b6114b9565b6040516106689190615ab6565b60405180910390f35b34801561067d57600080fd5b5061069860048036038101906106939190613bae565b6114be565b005b3480156106a657600080fd5b506106af611544565b6040516106bc9190615677565b60405180910390f35b3480156106d157600080fd5b506106da61156e565b6040516106e791906156f9565b60405180910390f35b3480156106fc57600080fd5b506107176004803603810190610712919061398c565b611600565b60405161072491906156de565b60405180910390f35b34801561073957600080fd5b50610742611620565b60405161074f9190615ab6565b60405180910390f35b610772600480360381019061076d9190613bae565b611626565b005b34801561078057600080fd5b5061079b60048036038101906107969190613abb565b6117ac565b005b3480156107a957600080fd5b506107c460048036038101906107bf9190613b85565b61192d565b6040516107d191906156f9565b60405180910390f35b3480156107e657600080fd5b5061080160048036038101906107fc9190613bae565b611994565b005b34801561080f57600080fd5b5061082a60048036038101906108259190613a40565b611a5f565b005b34801561083857600080fd5b50610853600480360381019061084e9190613bae565b611ac1565b60405161086091906156f9565b60405180910390f35b34801561087557600080fd5b5061087e611bca565b60405161088b9190615677565b60405180910390f35b3480156108a057600080fd5b506108a9611bf0565b005b3480156108b757600080fd5b506108c0611c98565b005b3480156108ce57600080fd5b506108d7611d40565b6040516108e491906156de565b60405180910390f35b3480156108f957600080fd5b50610902611d53565b60405161090f9190615ab6565b60405180910390f35b34801561092457600080fd5b5061092d611d59565b60405161093a9190615ab6565b60405180910390f35b34801561094f57600080fd5b50610958611d5f565b005b34801561096657600080fd5b50610981600480360381019061097c91906139b5565b611e36565b60405161098e91906156de565b60405180910390f35b3480156109a357600080fd5b506109be60048036038101906109b9919061398c565b611eca565b005b3480156109cc57600080fd5b506109d5611fc2565b6040516109e29190615ab6565b60405180910390f35b60007f780e9d63000000000000000000000000000000000000000000000000000000007bffffffffffffffffffffffffffffffffffffffffffffffffffffffff1916827bffffffffffffffffffffffffffffffffffffffffffffffffffffffff19161480610a5e5750610a5d82611fde565b5b9050919050565b606060008054610a7490615db2565b80601f0160208091040260200160405190810160405280929190818152602001828054610aa090615db2565b8015610aed5780601f10610ac257610100808354040283529160200191610aed565b820191906000526020600020905b815481529060010190602001808311610ad057829003601f168201915b5050505050905090565b6000610b02826120c0565b610b41576040517f08c379a0000000000000000000000000000000000000000000000000000000008152600401610b389061591b565b60405180910390fd5b6004600083815260200190815260200160002060009054906101000a900473ffffffffffffffffffffffffffffffffffffffff169050919050565b6000610b87826112bc565b90508073ffffffffffffffffffffffffffffffffffffffff168373ffffffffffffffffffffffffffffffffffffffff161415610bf8576040517f08c379a0000000000000000000000000000000000000000000000000000000008152600401610bef906159db565b60405180910390fd5b8073ffffffffffffffffffffffffffffffffffffffff16610c1761212c565b73ffffffffffffffffffffffffffffffffffffffff161480610c465750610c4581610c4061212c565b611e36565b5b610c85576040517f08c379a0000000000000000000000000000000000000000000000000000000008152600401610c7c9061585b565b60405180910390fd5b610c8f8383612134565b505050565b600047905090565b6000600880549050905090565b601b60149054906101000a900460ff1681565b610ccd610cc761212c565b826121ed565b610d0c576040517f08c379a0000000000000000000000000000000000000000000000000000000008152600401610d03906159fb565b60405180910390fd5b610d178383836122cb565b505050565b601060019054906101000a900460ff1681565b6000610d3a83611379565b8210610d7b576040517f08c379a0000000000000000000000000000000000000000000000000000000008152600401610d729061573b565b60405180910390fd5b600660008473ffffffffffffffffffffffffffffffffffffffff1673ffffffffffffffffffffffffffffffffffffffff168152602001908152602001600020600083815260200190815260200160002054905092915050565b601060009054906101000a900460ff16610e23576040517f08c379a0000000000000000000000000000000000000000000000000000000008152600401610e1a906157db565b60405180910390fd5b600c5481610e2f610c9c565b610e399190615bc2565b1115610e7a576040517f08c379a0000000000000000000000000000000000000000000000000000000008152600401610e71906157bb565b60405180910390fd5b610e8381612527565b50565b610e8e61212c565b73ffffffffffffffffffffffffffffffffffffffff16610eac611544565b73ffffffffffffffffffffffffffffffffffffffff1614610f02576040517f08c379a0000000000000000000000000000000000000000000000000000000008152600401610ef99061593b565b60405180910390fd5b610f0a611544565b73ffffffffffffffffffffffffffffffffffffffff166108fc479081150290604051600060405180830381858888f19350505050158015610f4f573d6000803e3d6000fd5b50565b610f5a613819565b6000600143610f699190615ca3565b4083604051602001610f7c92919061544c565b6040516020818303038152906040528051906020012060001c9050600062d97851604051602001610fad919061565c565b6040516020818303038152906040528051906020012060001c9050610fe1600883610fd89190615e6b565b61ffff166126d1565b6040518060600160405280600884610ff99190615e6b565b61ffff16815260200161101a612710846110139190615e6b565b600261276a565b61ffff16815260200161103b612710846110349190615e6b565b600161276a565b61ffff1681525092505050919050565b61106683838360405180602001604052806000815250611a5f565b505050565b60608060126001815481106110a9577f4e487b7100000000000000000000000000000000000000000000000000000000600052603260045260246000fd5b906000526020600020906002020160010160136002815481106110f5577f4e487b7100000000000000000000000000000000000000000000000000000000600052603260045260246000fd5b90600052602060002090600402016000016014600081548110611141577f4e487b7100000000000000000000000000000000000000000000000000000000600052603260045260246000fd5b906000526020600020906002020160000160405160200161116594939291906154a9565b60405160208183030381529060405290508060405160200161118791906155ca565b6040516020818303038152906040529050919050565b6111a561212c565b73ffffffffffffffffffffffffffffffffffffffff166111c3611544565b73ffffffffffffffffffffffffffffffffffffffff1614611219576040517f08c379a00000000000000000000000000000000000000000000000000000000081526004016112109061593b565b60405180910390fd5b61122281612527565b50565b600061122f610c9c565b8210611270576040517f08c379a000000000000000000000000000000000000000000000000000000000815260040161126790615a1b565b60405180910390fd5b600882815481106112aa577f4e487b7100000000000000000000000000000000000000000000000000000000600052603260045260246000fd5b90600052602060002001549050919050565b6000806002600084815260200190815260200160002060009054906101000a900473ffffffffffffffffffffffffffffffffffffffff169050600073ffffffffffffffffffffffffffffffffffffffff168173ffffffffffffffffffffffffffffffffffffffff161415611365576040517f08c379a000000000000000000000000000000000000000000000000000000000815260040161135c9061589b565b60405180910390fd5b80915050919050565b666a94d74f43000081565b60008073ffffffffffffffffffffffffffffffffffffffff168273ffffffffffffffffffffffffffffffffffffffff1614156113ea576040517f08c379a00000000000000000000000000000000000000000000000000000000081526004016113e19061587b565b60405180910390fd5b600360008373ffffffffffffffffffffffffffffffffffffffff1673ffffffffffffffffffffffffffffffffffffffff168152602001908152602001600020549050919050565b61143961212c565b73ffffffffffffffffffffffffffffffffffffffff16611457611544565b73ffffffffffffffffffffffffffffffffffffffff16146114ad576040517f08c379a00000000000000000000000000000000000000000000000000000000081526004016114a49061593b565b60405180910390fd5b6114b760006128cc565b565b600a81565b6114c661212c565b73ffffffffffffffffffffffffffffffffffffffff166114e4611544565b73ffffffffffffffffffffffffffffffffffffffff161461153a576040517f08c379a00000000000000000000000000000000000000000000000000000000081526004016115319061593b565b60405180910390fd5b80600e8190555050565b6000600a60009054906101000a900473ffffffffffffffffffffffffffffffffffffffff16905090565b60606001805461157d90615db2565b80601f01602080910402602001604051908101604052809291908181526020018280546115a990615db2565b80156115f65780601f106115cb576101008083540402835291602001916115f6565b820191906000526020600020905b8154815290600101906020018083116115d957829003601f168201915b5050505050905090565b601c6020528060005260406000206000915054906101000a900460ff1681565b600e5481565b600081141561166a576040517f08c379a0000000000000000000000000000000000000000000000000000000008152600401611661906158bb565b60405180910390fd5b600a8111156116ae576040517f08c379a00000000000000000000000000000000000000000000000000000000081526004016116a59061599b565b60405180910390fd5b600f546116cb826116bd610c9c565b61299290919063ffffffff16565b111561170c576040517f08c379a000000000000000000000000000000000000000000000000000000000815260040161170390615a3b565b60405180910390fd5b3461172782666a94d74f4300006129a890919063ffffffff16565b1115611768576040517f08c379a000000000000000000000000000000000000000000000000000000000815260040161175f906159bb565b60405180910390fd5b60005b818110156117a857600061177d610c9c565b9050600f548110156117945761179333826129be565b5b5080806117a090615de4565b91505061176b565b5050565b6117b461212c565b73ffffffffffffffffffffffffffffffffffffffff168273ffffffffffffffffffffffffffffffffffffffff161415611822576040517f08c379a00000000000000000000000000000000000000000000000000000000081526004016118199061581b565b60405180910390fd5b806005600061182f61212c565b73ffffffffffffffffffffffffffffffffffffffff1673ffffffffffffffffffffffffffffffffffffffff16815260200190815260200160002060008473ffffffffffffffffffffffffffffffffffffffff1673ffffffffffffffffffffffffffffffffffffffff16815260200190815260200160002060006101000a81548160ff0219169083151502179055508173ffffffffffffffffffffffffffffffffffffffff166118dc61212c565b73ffffffffffffffffffffffffffffffffffffffff167f17307eab39ab6107e8899845ad3d59bd9653f200f220920489ca2b5937696c318360405161192191906156de565b60405180910390a35050565b6060611938826129dc565b61194183612a57565b61194a84612ad2565b60405160200161195c93929190615478565b60405160208183030381529060405290508060405160200161197e9190615619565b6040516020818303038152906040529050919050565b61199c61212c565b73ffffffffffffffffffffffffffffffffffffffff166119ba611544565b73ffffffffffffffffffffffffffffffffffffffff1614611a10576040517f08c379a0000000000000000000000000000000000000000000000000000000008152600401611a079061593b565b60405180910390fd5b600d54811115611a55576040517f08c379a0000000000000000000000000000000000000000000000000000000008152600401611a4c90615a7b565b60405180910390fd5b80600c8190555050565b611a70611a6a61212c565b836121ed565b611aaf576040517f08c379a0000000000000000000000000000000000000000000000000000000008152600401611aa6906159fb565b60405180910390fd5b611abb84848484612b4d565b50505050565b6060611acc826120c0565b611ad557600080fd5b6000601160008481526020019081526020016000206040518060600160405290816000820160009054906101000a900461ffff1661ffff1661ffff1681526020016000820160029054906101000a900461ffff1661ffff1661ffff1681526020016000820160049054906101000a900461ffff1661ffff1661ffff16815250509050611ba3611b6384612ba9565b611b74611b6f8461192d565b612d56565b611b7d8461106b565b604051602001611b8f9392919061556d565b604051602081830303815290604052612d56565b604051602001611bb391906155f7565b604051602081830303815290604052915050919050565b601b60009054906101000a900473ffffffffffffffffffffffffffffffffffffffff1681565b611bf861212c565b73ffffffffffffffffffffffffffffffffffffffff16611c16611544565b73ffffffffffffffffffffffffffffffffffffffff1614611c6c576040517f08c379a0000000000000000000000000000000000000000000000000000000008152600401611c639061593b565b60405180910390fd5b601060009054906101000a900460ff1615601060006101000a81548160ff021916908315150217905550565b611ca061212c565b73ffffffffffffffffffffffffffffffffffffffff16611cbe611544565b73ffffffffffffffffffffffffffffffffffffffff1614611d14576040517f08c379a0000000000000000000000000000000000000000000000000000000008152600401611d0b9061593b565b60405180910390fd5b601060019054906101000a900460ff1615601060016101000a81548160ff021916908315150217905550565b601060009054906101000a900460ff1681565b600d5481565b600c5481565b611d6761212c565b73ffffffffffffffffffffffffffffffffffffffff16611d85611544565b73ffffffffffffffffffffffffffffffffffffffff1614611ddb576040517f08c379a0000000000000000000000000000000000000000000000000000000008152600401611dd29061593b565b60405180910390fd5b600d54611de6610c9c565b10611e26576040517f08c379a0000000000000000000000000000000000000000000000000000000008152600401611e1d90615a5b565b60405180910390fd5b611e2e610c9c565b600d81905550565b6000600560008473ffffffffffffffffffffffffffffffffffffffff1673ffffffffffffffffffffffffffffffffffffffff16815260200190815260200160002060008373ffffffffffffffffffffffffffffffffffffffff1673ffffffffffffffffffffffffffffffffffffffff16815260200190815260200160002060009054906101000a900460ff16905092915050565b611ed261212c565b73ffffffffffffffffffffffffffffffffffffffff16611ef0611544565b73ffffffffffffffffffffffffffffffffffffffff1614611f46576040517f08c379a0000000000000000000000000000000000000000000000000000000008152600401611f3d9061593b565b60405180910390fd5b600073ffffffffffffffffffffffffffffffffffffffff168173ffffffffffffffffffffffffffffffffffffffff161415611fb6576040517f08c379a0000000000000000000000000000000000000000000000000000000008152600401611fad9061577b565b60405180910390fd5b611fbf816128cc565b50565b600f5481565b6001816000016000828254019250508190555050565b60007f80ac58cd000000000000000000000000000000000000000000000000000000007bffffffffffffffffffffffffffffffffffffffffffffffffffffffff1916827bffffffffffffffffffffffffffffffffffffffffffffffffffffffff191614806120a957507f5b5e139f000000000000000000000000000000000000000000000000000000007bffffffffffffffffffffffffffffffffffffffffffffffffffffffff1916827bffffffffffffffffffffffffffffffffffffffffffffffffffffffff1916145b806120b957506120b882612f14565b5b9050919050565b60008073ffffffffffffffffffffffffffffffffffffffff166002600084815260200190815260200160002060009054906101000a900473ffffffffffffffffffffffffffffffffffffffff1673ffffffffffffffffffffffffffffffffffffffff1614159050919050565b600033905090565b816004600083815260200190815260200160002060006101000a81548173ffffffffffffffffffffffffffffffffffffffff021916908373ffffffffffffffffffffffffffffffffffffffff160217905550808273ffffffffffffffffffffffffffffffffffffffff166121a7836112bc565b73ffffffffffffffffffffffffffffffffffffffff167f8c5be1e5ebec7d5bd14f71427d1e84f3dd0314c0f7b2291e5b200ac8c7c3b92560405160405180910390a45050565b60006121f8826120c0565b612237576040517f08c379a000000000000000000000000000000000000000000000000000000000815260040161222e9061583b565b60405180910390fd5b6000612242836112bc565b90508073ffffffffffffffffffffffffffffffffffffffff168473ffffffffffffffffffffffffffffffffffffffff1614806122b157508373ffffffffffffffffffffffffffffffffffffffff1661229984610af7565b73ffffffffffffffffffffffffffffffffffffffff16145b806122c257506122c18185611e36565b5b91505092915050565b8273ffffffffffffffffffffffffffffffffffffffff166122eb826112bc565b73ffffffffffffffffffffffffffffffffffffffff1614612341576040517f08c379a00000000000000000000000000000000000000000000000000000000081526004016123389061595b565b60405180910390fd5b600073ffffffffffffffffffffffffffffffffffffffff168273ffffffffffffffffffffffffffffffffffffffff1614156123b1576040517f08c379a00000000000000000000000000000000000000000000000000000000081526004016123a8906157fb565b60405180910390fd5b6123bc838383612f7e565b6123c7600082612134565b6001600360008573ffffffffffffffffffffffffffffffffffffffff1673ffffffffffffffffffffffffffffffffffffffff16815260200190815260200160002060008282546124179190615ca3565b925050819055506001600360008473ffffffffffffffffffffffffffffffffffffffff1673ffffffffffffffffffffffffffffffffffffffff168152602001908152602001600020600082825461246e9190615bc2565b92505081905550816002600083815260200190815260200160002060006101000a81548173ffffffffffffffffffffffffffffffffffffffff021916908373ffffffffffffffffffffffffffffffffffffffff160217905550808273ffffffffffffffffffffffffffffffffffffffff168473ffffffffffffffffffffffffffffffffffffffff167fddf252ad1be2c89b69c2b068fc378daa952ba7f163c4a11628f55a4df523b3ef60405160405180910390a4505050565b6000811161256a576040517f08c379a00000000000000000000000000000000000000000000000000000000081526004016125619061571b565b60405180910390fd5b600b81106125ad576040517f08c379a00000000000000000000000000000000000000000000000000000000081526004016125a4906158db565b60405180910390fd5b600d54816125b9610c9c565b6125c39190615bc2565b1115612604576040517f08c379a00000000000000000000000000000000000000000000000000000000081526004016125fb9061597b565b60405180910390fd5b60005b818110156126cd57600061261b600b613092565b905061262681610f52565b6011600083815260200190815260200160002060008201518160000160006101000a81548161ffff021916908361ffff16021790555060208201518160000160026101000a81548161ffff021916908361ffff16021790555060408201518160000160046101000a81548161ffff021916908361ffff1602179055509050506126af33826129be565b6126b9600b611fc8565b5080806126c590615de4565b915050612607565b5050565b612767816040516024016126e59190615ab6565b6040516020818303038152906040527ff5b1bba9000000000000000000000000000000000000000000000000000000007bffffffffffffffffffffffffffffffffffffffffffffffffffffffff19166020820180517bffffffffffffffffffffffffffffffffffffffffffffffffffffffff83818316178352505050506130a0565b50565b6000806000905060005b60158460ff16600681106127b1577f4e487b7100000000000000000000000000000000000000000000000000000000600052603260045260246000fd5b01805490508160ff1610156128c057600060158560ff16600681106127ff577f4e487b7100000000000000000000000000000000000000000000000000000000600052603260045260246000fd5b018260ff168154811061283b577f4e487b7100000000000000000000000000000000000000000000000000000000600052603260045260246000fd5b90600052602060002090601091828204019190066002029054906101000a900461ffff1690508261ffff168661ffff161015801561288b575080836128809190615b8a565b61ffff168661ffff16105b1561289e578160ff1693505050506128c6565b80836128aa9190615b8a565b92505080806128b890615e2d565b915050612774565b50600080fd5b92915050565b6000600a60009054906101000a900473ffffffffffffffffffffffffffffffffffffffff16905081600a60006101000a81548173ffffffffffffffffffffffffffffffffffffffff021916908373ffffffffffffffffffffffffffffffffffffffff1602179055508173ffffffffffffffffffffffffffffffffffffffff168173ffffffffffffffffffffffffffffffffffffffff167f8be0079c531659141344cd1fd0a4f28419497f9722a3daafe3b4186f6b6457e060405160405180910390a35050565b600081836129a09190615bc2565b905092915050565b600081836129b69190615c49565b905092915050565b6129d88282604051806020016040528060008152506130c9565b5050565b60606012826000015161ffff1681548110612a20577f4e487b7100000000000000000000000000000000000000000000000000000000600052603260045260246000fd5b9060005260206000209060020201600001604051602001612a419190615540565b6040516020818303038152906040529050919050565b60606014826020015161ffff1681548110612a9b577f4e487b7100000000000000000000000000000000000000000000000000000000600052603260045260246000fd5b9060005260206000209060020201600101604051602001612abc9190615529565b6040516020818303038152906040529050919050565b60606013826040015161ffff1681548110612b16577f4e487b7100000000000000000000000000000000000000000000000000000000600052603260045260246000fd5b9060005260206000209060040201600101604051602001612b379190615529565b6040516020818303038152906040529050919050565b612b588484846122cb565b612b6484848484613124565b612ba3576040517f08c379a0000000000000000000000000000000000000000000000000000000008152600401612b9a9061575b565b60405180910390fd5b50505050565b60606000821415612bf1576040518060400160405280600181526020017f30000000000000000000000000000000000000000000000000000000000000008152509050612d51565b600082905060005b60008214612c23578080612c0c90615de4565b915050600a82612c1c9190615c18565b9150612bf9565b60008167ffffffffffffffff811115612c65577f4e487b7100000000000000000000000000000000000000000000000000000000600052604160045260246000fd5b6040519080825280601f01601f191660200182016040528015612c975781602001600182028036833780820191505090505b5090505b60008514612d4a57600182612cb09190615ca3565b9150600a85612cbf9190615e9c565b6030612ccb9190615bc2565b60f81b818381518110612d07577f4e487b7100000000000000000000000000000000000000000000000000000000600052603260045260246000fd5b60200101907effffffffffffffffffffffffffffffffffffffffffffffffffffffffffffff1916908160001a905350600a85612d439190615c18565b9450612c9b565b8093505050505b919050565b60606000825190506000811415612d7f5760405180602001604052806000815250915050612f0f565b60006003600283612d909190615bc2565b612d9a9190615c18565b6004612da69190615c49565b90506000602082612db79190615bc2565b67ffffffffffffffff811115612df6577f4e487b7100000000000000000000000000000000000000000000000000000000600052604160045260246000fd5b6040519080825280601f01601f191660200182016040528015612e285781602001600182028036833780820191505090505b509050600060405180606001604052806040815260200161600e604091399050600181016020830160005b86811015612ecc5760038101905062ffffff818a015116603f8160121c168401518060081b905060ff603f83600c1c1686015116810190508060081b905060ff603f8360061c1686015116810190508060081b905060ff603f831686015116810190508060e01b90508084526004840193505050612e53565b506003860660018114612ee65760028114612ef657612f01565b613d3d60f01b6002830352612f01565b603d60f81b60018303525b508484525050819450505050505b919050565b60007f01ffc9a7000000000000000000000000000000000000000000000000000000007bffffffffffffffffffffffffffffffffffffffffffffffffffffffff1916827bffffffffffffffffffffffffffffffffffffffffffffffffffffffff1916149050919050565b612f898383836132bb565b600073ffffffffffffffffffffffffffffffffffffffff168373ffffffffffffffffffffffffffffffffffffffff161415612fcc57612fc7816132c0565b61300b565b8173ffffffffffffffffffffffffffffffffffffffff168373ffffffffffffffffffffffffffffffffffffffff161461300a576130098382613309565b5b5b600073ffffffffffffffffffffffffffffffffffffffff168273ffffffffffffffffffffffffffffffffffffffff16141561304e5761304981613476565b61308d565b8273ffffffffffffffffffffffffffffffffffffffff168273ffffffffffffffffffffffffffffffffffffffff161461308c5761308b82826135b9565b5b5b505050565b600081600001549050919050565b60008151905060006a636f6e736f6c652e6c6f679050602083016000808483855afa5050505050565b6130d38383613638565b6130e06000848484613124565b61311f576040517f08c379a00000000000000000000000000000000000000000000000000000000081526004016131169061575b565b60405180910390fd5b505050565b60006131458473ffffffffffffffffffffffffffffffffffffffff16613806565b156132ae578373ffffffffffffffffffffffffffffffffffffffff1663150b7a0261316e61212c565b8786866040518563ffffffff1660e01b81526004016131909493929190615692565b602060405180830381600087803b1580156131aa57600080fd5b505af19250505080156131db57506040513d601f19601f820116820180604052508101906131d89190613b5c565b60015b61325e573d806000811461320b576040519150601f19603f3d011682016040523d82523d6000602084013e613210565b606091505b50600081511415613256576040517f08c379a000000000000000000000000000000000000000000000000000000000815260040161324d9061575b565b60405180910390fd5b805181602001fd5b63150b7a0260e01b7bffffffffffffffffffffffffffffffffffffffffffffffffffffffff1916817bffffffffffffffffffffffffffffffffffffffffffffffffffffffff1916149150506132b3565b600190505b949350505050565b505050565b6008805490506009600083815260200190815260200160002081905550600881908060018154018082558091505060019003906000526020600020016000909190919091505550565b6000600161331684611379565b6133209190615ca3565b9050600060076000848152602001908152602001600020549050818114613405576000600660008673ffffffffffffffffffffffffffffffffffffffff1673ffffffffffffffffffffffffffffffffffffffff168152602001908152602001600020600084815260200190815260200160002054905080600660008773ffffffffffffffffffffffffffffffffffffffff1673ffffffffffffffffffffffffffffffffffffffff168152602001908152602001600020600084815260200190815260200160002081905550816007600083815260200190815260200160002081905550505b6007600084815260200190815260200160002060009055600660008573ffffffffffffffffffffffffffffffffffffffff1673ffffffffffffffffffffffffffffffffffffffff16815260200190815260200160002060008381526020019081526020016000206000905550505050565b6000600160088054905061348a9190615ca3565b90506000600960008481526020019081526020016000205490506000600883815481106134e0577f4e487b7100000000000000000000000000000000000000000000000000000000600052603260045260246000fd5b906000526020600020015490508060088381548110613528577f4e487b7100000000000000000000000000000000000000000000000000000000600052603260045260246000fd5b90600052602060002001819055508160096000838152602001908152602001600020819055506009600085815260200190815260200160002060009055600880548061359d577f4e487b7100000000000000000000000000000000000000000000000000000000600052603160045260246000fd5b6001900381819060005260206000200160009055905550505050565b60006135c483611379565b905081600660008573ffffffffffffffffffffffffffffffffffffffff1673ffffffffffffffffffffffffffffffffffffffff168152602001908152602001600020600083815260200190815260200160002081905550806007600084815260200190815260200160002081905550505050565b600073ffffffffffffffffffffffffffffffffffffffff168273ffffffffffffffffffffffffffffffffffffffff1614156136a8576040517f08c379a000000000000000000000000000000000000000000000000000000000815260040161369f906158fb565b60405180910390fd5b6136b1816120c0565b156136f1576040517f08c379a00000000000000000000000000000000000000000000000000000000081526004016136e89061579b565b60405180910390fd5b6136fd60008383612f7e565b6001600360008473ffffffffffffffffffffffffffffffffffffffff1673ffffffffffffffffffffffffffffffffffffffff168152602001908152602001600020600082825461374d9190615bc2565b92505081905550816002600083815260200190815260200160002060006101000a81548173ffffffffffffffffffffffffffffffffffffffff021916908373ffffffffffffffffffffffffffffffffffffffff160217905550808273ffffffffffffffffffffffffffffffffffffffff16600073ffffffffffffffffffffffffffffffffffffffff167fddf252ad1be2c89b69c2b068fc378daa952ba7f163c4a11628f55a4df523b3ef60405160405180910390a45050565b600080823b905060008111915050919050565b6040518060600160405280600061ffff168152602001600061ffff168152602001600061ffff1681525090565b600061385961385484615b02565b615ad1565b90508281526020810184848401111561387157600080fd5b61387c848285615d70565b509392505050565b60008135905061389381615f9a565b92915050565b6000813590506138a881615fb1565b92915050565b6000813590506138bd81615fc8565b92915050565b6000815190506138d281615fc8565b92915050565b600082601f8301126138e957600080fd5b81356138f9848260208601613846565b91505092915050565b60006060828403121561391457600080fd5b61391e6060615ad1565b9050600061392e84828501613962565b600083015250602061394284828501613962565b602083015250604061395684828501613962565b60408301525092915050565b60008135905061397181615fdf565b92915050565b60008135905061398681615ff6565b92915050565b60006020828403121561399e57600080fd5b60006139ac84828501613884565b91505092915050565b600080604083850312156139c857600080fd5b60006139d685828601613884565b92505060206139e785828601613884565b9150509250929050565b600080600060608486031215613a0657600080fd5b6000613a1486828701613884565b9350506020613a2586828701613884565b9250506040613a3686828701613977565b9150509250925092565b60008060008060808587031215613a5657600080fd5b6000613a6487828801613884565b9450506020613a7587828801613884565b9350506040613a8687828801613977565b925050606085013567ffffffffffffffff811115613aa357600080fd5b613aaf878288016138d8565b91505092959194509250565b60008060408385031215613ace57600080fd5b6000613adc85828601613884565b9250506020613aed85828601613899565b9150509250929050565b60008060408385031215613b0a57600080fd5b6000613b1885828601613884565b9250506020613b2985828601613977565b9150509250929050565b600060208284031215613b4557600080fd5b6000613b53848285016138ae565b91505092915050565b600060208284031215613b6e57600080fd5b6000613b7c848285016138c3565b91505092915050565b600060608284031215613b9757600080fd5b6000613ba584828501613902565b91505092915050565b600060208284031215613bc057600080fd5b6000613bce84828501613977565b91505092915050565b613be081615cd7565b82525050565b613bef81615ce9565b82525050565b613c06613c0182615cf5565b615e57565b82525050565b6000613c1782615b47565b613c218185615b5d565b9350613c31818560208601615d7f565b613c3a81615f89565b840191505092915050565b6000613c5082615b52565b613c5a8185615b6e565b9350613c6a818560208601615d7f565b613c7381615f89565b840191505092915050565b6000613c8982615b52565b613c938185615b7f565b9350613ca3818560208601615d7f565b80840191505092915050565b60008154613cbc81615db2565b613cc68186615b7f565b94506001821660008114613ce15760018114613cf257613d25565b60ff19831686528186019350613d25565b613cfb85615b32565b60005b83811015613d1d57815481890152600182019150602081019050613cfe565b838801955050505b50505092915050565b6000613d3b602083615b6e565b91507f5175616e74697479206d7573742062652067726561746572207468616e20302e6000830152602082019050919050565b6000613d7b601f83615b7f565b91507f7b2274726169745f74797065223a2254797065222c202276616c7565223a22006000830152601f82019050919050565b6000613dbb602b83615b6e565b91507f455243373231456e756d657261626c653a206f776e657220696e646578206f7560008301527f74206f6620626f756e64730000000000000000000000000000000000000000006020830152604082019050919050565b6000613e21603283615b6e565b91507f4552433732313a207472616e7366657220746f206e6f6e20455243373231526560008301527f63656976657220696d706c656d656e74657200000000000000000000000000006020830152604082019050919050565b6000613e87602683615b6e565b91507f4f776e61626c653a206e6577206f776e657220697320746865207a65726f206160008301527f64647265737300000000000000000000000000000000000000000000000000006020830152604082019050919050565b6000613eed601c83615b6e565b91507f4552433732313a20746f6b656e20616c7265616479206d696e746564000000006000830152602082019050919050565b6000613f2d600c83615b7f565b91507f3c726563742066696c6c3d2700000000000000000000000000000000000000006000830152600c82019050919050565b6000613f6d601583615b6e565b91507f4578636565647320636c61696d20737570706c792e00000000000000000000006000830152602082019050919050565b6000613fad600f83615b7f565b91507f222c2261747472696275746573223a00000000000000000000000000000000006000830152600f82019050919050565b6000613fed607183615b7f565b91507f3c646566733e3c7374796c653e2e6675727b66696c6c3a233764373861353b6660008301527f696c6c2d72756c653a6576656e6f64643b7d2e6f75746c696e657b66696c6c3a60208301527f233130306330613b7d2e686967686c696768747b66696c6c3a2339393935423860408301527f3b7d3c2f7374796c653e3c2f646566733e0000000000000000000000000000006060830152607182019050919050565b600061409f600383615b7f565b91507f227d2c00000000000000000000000000000000000000000000000000000000006000830152600382019050919050565b60006140df601883615b6e565b91507f436c61696d696e67206e6f7420616374697665207965742e00000000000000006000830152602082019050919050565b600061411f602483615b6e565b91507f4552433732313a207472616e7366657220746f20746865207a65726f2061646460008301527f72657373000000000000000000000000000000000000000000000000000000006020830152604082019050919050565b6000614185601983615b6e565b91507f4552433732313a20617070726f766520746f2063616c6c6572000000000000006000830152602082019050919050565b60006141c5601983615b7f565b91507f7b226e616d65223a20224f6e20436861696e20427574742023000000000000006000830152601982019050919050565b600061420661061583615b7f565b91507f3c673e3c7265637420783d22342220793d22332220636c6173733d226f75746c60008301527f696e65222077696474683d223122206865696768743d2231222f3e3c7265637460208301527f20783d22322220793d22352220636c6173733d226f75746c696e65222077696460408301527f74683d223122206865696768743d2232222f3e3c706f6c79676f6e20636c617360608301527f733d226f75746c696e652220706f696e74733d22362c3220352c3220352c332060808301527f362c3320372c3320372c3220372c3120362c31222f3e3c7265637420783d223060a08301527f2220793d22382220636c6173733d226f75746c696e65222077696474683d223160c08301527f22206865696768743d2233222f3e3c7265637420783d22312220793d2237222060e08301527f636c6173733d226f75746c696e65222077696474683d223122206865696768746101008301527f3d2231222f3e3c706f6c79676f6e20636c6173733d226f75746c696e652220706101208301527f6f696e74733d2231302c332031302c342031312c342031312c332031322c33206101408301527f31322c322031302c32222f3e3c706f6c79676f6e20636c6173733d226f75746c6101608301527f696e652220706f696e74733d22382c3020372c3020372c3120382c3120392c316101808301527f20392c30222f3e3c7265637420783d22332220793d22342220636c6173733d226101a08301527f6f75746c696e65222077696474683d223122206865696768743d2231222f3e3c6101c08301527f706f6c79676f6e20636c6173733d226f75746c696e652220706f696e74733d226101e08301527f32302c382031392c382031392c392032302c392032312c392032312c38222f3e6102008301527f3c7265637420783d2231382220793d22362220636c6173733d226f75746c696e6102208301527f65222077696474683d223122206865696768743d2232222f3e3c7265637420786102408301527f3d2232312220793d22392220636c6173733d226f75746c696e652220776964746102608301527f683d223122206865696768743d2232222f3e3c706f6c79676f6e20636c6173736102808301527f3d226f75746c696e652220706f696e74733d2231382c342031372c342031372c6102a08301527f352031372c362031382c362031382c35222f3e3c7265637420783d22313622206102c08301527f793d22332220636c6173733d226f75746c696e65222077696474683d223122206102e08301527f6865696768743d2231222f3e3c7265637420783d2231322220793d22312220636103008301527f6c6173733d226f75746c696e65222077696474683d223322206865696768743d6103208301527f2231222f3e3c7265637420783d22392220793d22312220636c6173733d226f756103408301527f746c696e65222077696474683d223122206865696768743d2231222f3e3c72656103608301527f637420783d2231352220793d22322220636c6173733d226f75746c696e6522206103808301527f77696474683d223122206865696768743d2231222f3e3c7265637420783d22316103a08301527f362220793d22352220636c6173733d226f75746c696e65222077696474683d226103c08301527f3122206865696768743d2231222f3e3c7265637420783d2231352220793d22366103e08301527f2220636c6173733d226f75746c696e65222077696474683d22312220686569676104008301527f68743d2231222f3e3c2f673e3c706f6c79676f6e20636c6173733d22667572226104208301527f20706f696e74733d2232302c392031392c392031392c382031382c382031382c6104408301527f372031382c362031372c362031372c352031372c342031362c342031362c33206104608301527f31352c332031352c342031352c342031352c332031352c332031352c322031346104808301527f2c322031332c3231322c322031322c332031312c332031302c332031302c32206104a08301527f392c3220392c3120382c3120372c3120372c3220362c3220362c3320352c33206104c08301527f352c3420342c3420342c3520332c3520332c3620332c3720322c3720322c38206104e08301527f312c3820312c3920312c313020312c313120322c313120332c313120342c31316105008301527f20352c3131362c313120372c313120382c313120392c31312031302c313120316105208301527f312c31312031322c31312031332c31312031342c31312031352c31312031362c6105408301527f31312031372c31312031382c31312031392c31312032302c31312032312c31316105608301527f2032312c31302032312c39222f3e3c673e3c706f6c79676f6e20636c6173733d6105808301527f22686967686c696768742220706f696e74733d22352c3520352c3620362c36206105a08301527f372c3620372c3520362c35222f3e3c706f6c79676f6e20636c6173733d2268696105c08301527f67686c696768742220706f696e74733d2231342c332031332c332031332c34206105e08301527f31342c342031352c342031352c33222f3e3c2f673e000000000000000000000061060083015261061582019050919050565b6000614990602c83615b6e565b91507f4552433732313a206f70657261746f7220717565727920666f72206e6f6e657860008301527f697374656e7420746f6b656e00000000000000000000000000000000000000006020830152604082019050919050565b60006149f6603883615b6e565b91507f4552433732313a20617070726f76652063616c6c6572206973206e6f74206f7760008301527f6e6572206e6f7220617070726f76656420666f7220616c6c00000000000000006020830152604082019050919050565b6000614a5c602a83615b6e565b91507f4552433732313a2062616c616e636520717565727920666f7220746865207a6560008301527f726f2061646472657373000000000000000000000000000000000000000000006020830152604082019050919050565b6000614ac2602983615b6e565b91507f4552433732313a206f776e657220717565727920666f72206e6f6e657869737460008301527f656e7420746f6b656e00000000000000000000000000000000000000000000006020830152604082019050919050565b6000614b28602183615b6e565b91507f596f75206e65656420746f206d696e74206174206c65617374203120746f6b6560008301527f6e000000000000000000000000000000000000000000000000000000000000006020830152604082019050919050565b6000614b8e600283615b7f565b91507f227d0000000000000000000000000000000000000000000000000000000000006000830152600282019050919050565b6000614bce601583615b6e565b91507f45786365656473206d617820706572206d696e742e00000000000000000000006000830152602082019050919050565b6000614c0e602083615b6e565b91507f4552433732313a206d696e7420746f20746865207a65726f20616464726573736000830152602082019050919050565b6000614c4e600183615b7f565b91507f7d000000000000000000000000000000000000000000000000000000000000006000830152600182019050919050565b6000614c8e601b83615b7f565b91507f27206865696768743d273430272077696474683d27343027202f3e00000000006000830152601b82019050919050565b6000614cce602c83615b6e565b91507f4552433732313a20617070726f76656420717565727920666f72206e6f6e657860008301527f697374656e7420746f6b656e00000000000000000000000000000000000000006020830152604082019050919050565b6000614d34602083615b6e565b91507f4f776e61626c653a2063616c6c6572206973206e6f7420746865206f776e65726000830152602082019050919050565b6000614d74600183615b7f565b91507f5b000000000000000000000000000000000000000000000000000000000000006000830152600182019050919050565b6000614db4602983615b6e565b91507f4552433732313a207472616e73666572206f6620746f6b656e2074686174206960008301527f73206e6f74206f776e00000000000000000000000000000000000000000000006020830152604082019050919050565b6000614e1a601383615b6e565b91507f45786365656473206d617820737570706c792e000000000000000000000000006000830152602082019050919050565b6000614e5a602583615b6e565b91507f596f752063616e206f6e6c79206d696e7420313020746f6b656e73206174206160008301527f2074696d650000000000000000000000000000000000000000000000000000006020830152604082019050919050565b6000614ec0601683615b6e565b91507f4e6f7420656e6f7567682045746865722073656e742e000000000000000000006000830152602082019050919050565b6000614f00600183615b7f565b91507f5d000000000000000000000000000000000000000000000000000000000000006000830152600182019050919050565b6000614f40602183615b6e565b91507f4552433732313a20617070726f76616c20746f2063757272656e74206f776e6560008301527f72000000000000000000000000000000000000000000000000000000000000006020830152604082019050919050565b6000614fa6602583615b7f565b91507f7b2274726169745f74797065223a224261636b67726f756e64222c202276616c60008301527f7565223a220000000000000000000000000000000000000000000000000000006020830152602582019050919050565b600061500c601d83615b7f565b91507f646174613a6170706c69636174696f6e2f6a736f6e3b6261736536342c0000006000830152601d82019050919050565b600061504c603183615b6e565b91507f4552433732313a207472616e736665722063616c6c6572206973206e6f74206f60008301527f776e6572206e6f7220617070726f7665640000000000000000000000000000006020830152604082019050919050565b60006150b2602c83615b6e565b91507f455243373231456e756d657261626c653a20676c6f62616c20696e646578206f60008301527f7574206f6620626f756e647300000000000000000000000000000000000000006020830152604082019050919050565b6000615118603783615b7f565b91507f3c7374796c653e23627574747b73686170652d72656e646572696e673a63726960008301527f737065646765733b7d3c2f7374796c653e3c2f7376673e0000000000000000006020830152603782019050919050565b600061517e602083615b6e565b91507f4d696e74696e6720776f756c6420657863656564206d61782e20737570706c796000830152602082019050919050565b60006151be605a83615b7f565b91507f222c20226465736372697074696f6e223a20224275747473206f6e206275747460008301527f73206f6e206275747473206f6e20636861696e222c2022696d616765223a202260208301527f646174613a696d6167652f7376672b786d6c3b6261736536342c0000000000006040830152605a82019050919050565b600061524a606a83615b7f565b91507f3c7376672069643d27627574742720786d6c6e733d27687474703a2f2f77777760008301527f2e77332e6f72672f323030302f7376672720707265736572766541737065637460208301527f526174696f3d27784d696e594d696e206d656574272076696577426f783d273060408301527f2030203430203430273e000000000000000000000000000000000000000000006060830152606a82019050919050565b60006152fc602583615b7f565b91507f7b2274726169745f74797065223a224275747420637261636b222c202276616c60008301527f7565223a220000000000000000000000000000000000000000000000000000006020830152602582019050919050565b6000615362600b83615b6e565b91507f416c6c206d696e7465642e0000000000000000000000000000000000000000006000830152602082019050919050565b60006153a2601a83615b6e565b91507f576f756c6420696e637265617365206d617820737570706c792e0000000000006000830152602082019050919050565b6060820160008201516153eb6000850182615417565b5060208201516153fe6020850182615417565b5060408201516154116040850182615417565b50505050565b61542081615d2b565b82525050565b61542f81615d59565b82525050565b61544661544182615d59565b615e61565b82525050565b60006154588285613bf5565b6020820191506154688284615435565b6020820191508190509392505050565b60006154848286613c7e565b91506154908285613c7e565b915061549c8284613c7e565b9150819050949350505050565b60006154b58287613c7e565b91506154c082614f99565b91506154cc8286613caf565b91506154d782614092565b91506154e282613d6e565b91506154ee8285613caf565b91506154f982614092565b9150615504826152ef565b91506155108284613caf565b915061551b82614b81565b915081905095945050505050565b60006155358284613caf565b915081905092915050565b600061554b82613f20565b91506155578284613caf565b915061556282614c81565b915081905092915050565b6000615578826141b8565b91506155848286613c7e565b915061558f826151b1565b915061559b8285613c7e565b91506155a682613fa0565b91506155b28284613c7e565b91506155bd82614c41565b9150819050949350505050565b60006155d582614d67565b91506155e18284613c7e565b91506155ec82614ef3565b915081905092915050565b600061560282614fff565b915061560e8284613c7e565b915081905092915050565b60006156248261523d565b915061562f82613fe0565b915061563a826141f8565b91506156468284613c7e565b91506156518261510b565b915081905092915050565b60006156688284615435565b60208201915081905092915050565b600060208201905061568c6000830184613bd7565b92915050565b60006080820190506156a76000830187613bd7565b6156b46020830186613bd7565b6156c16040830185615426565b81810360608301526156d38184613c0c565b905095945050505050565b60006020820190506156f36000830184613be6565b92915050565b600060208201905081810360008301526157138184613c45565b905092915050565b6000602082019050818103600083015261573481613d2e565b9050919050565b6000602082019050818103600083015261575481613dae565b9050919050565b6000602082019050818103600083015261577481613e14565b9050919050565b6000602082019050818103600083015261579481613e7a565b9050919050565b600060208201905081810360008301526157b481613ee0565b9050919050565b600060208201905081810360008301526157d481613f60565b9050919050565b600060208201905081810360008301526157f4816140d2565b9050919050565b6000602082019050818103600083015261581481614112565b9050919050565b6000602082019050818103600083015261583481614178565b9050919050565b6000602082019050818103600083015261585481614983565b9050919050565b60006020820190508181036000830152615874816149e9565b9050919050565b6000602082019050818103600083015261589481614a4f565b9050919050565b600060208201905081810360008301526158b481614ab5565b9050919050565b600060208201905081810360008301526158d481614b1b565b9050919050565b600060208201905081810360008301526158f481614bc1565b9050919050565b6000602082019050818103600083015261591481614c01565b9050919050565b6000602082019050818103600083015261593481614cc1565b9050919050565b6000602082019050818103600083015261595481614d27565b9050919050565b6000602082019050818103600083015261597481614da7565b9050919050565b6000602082019050818103600083015261599481614e0d565b9050919050565b600060208201905081810360008301526159b481614e4d565b9050919050565b600060208201905081810360008301526159d481614eb3565b9050919050565b600060208201905081810360008301526159f481614f33565b9050919050565b60006020820190508181036000830152615a148161503f565b9050919050565b60006020820190508181036000830152615a34816150a5565b9050919050565b60006020820190508181036000830152615a5481615171565b9050919050565b60006020820190508181036000830152615a7481615355565b9050919050565b60006020820190508181036000830152615a9481615395565b9050919050565b6000606082019050615ab060008301846153d5565b92915050565b6000602082019050615acb6000830184615426565b92915050565b6000604051905081810181811067ffffffffffffffff82111715615af857615af7615f5a565b5b8060405250919050565b600067ffffffffffffffff821115615b1d57615b1c615f5a565b5b601f19601f8301169050602081019050919050565b60008190508160005260206000209050919050565b600081519050919050565b600081519050919050565b600082825260208201905092915050565b600082825260208201905092915050565b600081905092915050565b6000615b9582615d2b565b9150615ba083615d2b565b92508261ffff03821115615bb757615bb6615ecd565b5b828201905092915050565b6000615bcd82615d59565b9150615bd883615d59565b9250827fffffffffffffffffffffffffffffffffffffffffffffffffffffffffffffffff03821115615c0d57615c0c615ecd565b5b828201905092915050565b6000615c2382615d59565b9150615c2e83615d59565b925082615c3e57615c3d615efc565b5b828204905092915050565b6000615c5482615d59565b9150615c5f83615d59565b9250817fffffffffffffffffffffffffffffffffffffffffffffffffffffffffffffffff0483118215151615615c9857615c97615ecd565b5b828202905092915050565b6000615cae82615d59565b9150615cb983615d59565b925082821015615ccc57615ccb615ecd565b5b828203905092915050565b6000615ce282615d39565b9050919050565b60008115159050919050565b6000819050919050565b60007fffffffff0000000000000000000000000000000000000000000000000000000082169050919050565b600061ffff82169050919050565b600073ffffffffffffffffffffffffffffffffffffffff82169050919050565b6000819050919050565b600060ff82169050919050565b82818337600083830152505050565b60005b83811015615d9d578082015181840152602081019050615d82565b83811115615dac576000848401525b50505050565b60006002820490506001821680615dca57607f821691505b60208210811415615dde57615ddd615f2b565b5b50919050565b6000615def82615d59565b91507fffffffffffffffffffffffffffffffffffffffffffffffffffffffffffffffff821415615e2257615e21615ecd565b5b600182019050919050565b6000615e3882615d63565b915060ff821415615e4c57615e4b615ecd565b5b600182019050919050565b6000819050919050565b6000819050919050565b6000615e7682615d2b565b9150615e8183615d2b565b925082615e9157615e90615efc565b5b828206905092915050565b6000615ea782615d59565b9150615eb283615d59565b925082615ec257615ec1615efc565b5b828206905092915050565b7f4e487b7100000000000000000000000000000000000000000000000000000000600052601160045260246000fd5b7f4e487b7100000000000000000000000000000000000000000000000000000000600052601260045260246000fd5b7f4e487b7100000000000000000000000000000000000000000000000000000000600052602260045260246000fd5b7f4e487b7100000000000000000000000000000000000000000000000000000000600052604160045260246000fd5b6000601f19601f8301169050919050565b615fa381615cd7565b8114615fae57600080fd5b50565b615fba81615ce9565b8114615fc557600080fd5b50565b615fd181615cff565b8114615fdc57600080fd5b50565b615fe881615d2b565b8114615ff357600080fd5b50565b615fff81615d59565b811461600a57600080fd5b5056fe4142434445464748494a4b4c4d4e4f505152535455565758595a6162636465666768696a6b6c6d6e6f707172737475767778797a303132333435363738392b2fa26469706673582212204fea29b053cbfc405622e16e1203332206e2f26f4b456862a281ad9ea013949a64736f6c634300080000333c706174682066696c6c3d22626c61636b222066696c6c2d72756c653d226576656e6f64642220643d224d32302031394831395632304832305631395a4d32302032302e303030314831395632312e303030314c31382032312e303030315632322e303030315632332e303030314831394c31392032322e303030314832305632312e303030315632302e303030315a2220636c69702d72756c653d226576656e6f6464222f3e3c7061746820643d224d31382031374831395632304831385631377a4d31392032304c32302032305632314831394c31392032307a4d31392032314832305632332e303030314831395632317a222f3e3c706f6c79676f6e20636c6173733d226675722220706f696e74733d2231392c302031382c302031362c302031352c302031332c302031322c3020382c3020372c3020342c3020332c3020322c3020312c3020312c3120312c3220312c3320322c3320322c3420322c3520322c3720332c3720332c3820342c3820342c39372c3920382c3920382c382031302c382031302c392031322c392031332c392031352c392031362c392031362c382031372c382031372c372031382c372031382c362031392c362031392c352031392c342031392c322031392c312032302c312032302c30222f3e3c673e3c706f6c79676f6e20636c6173733d226f75746c696e652220706f696e74733d22342c3920342c313020372c313020382c313020382c3920372c39222f3e3c7265637420783d22332220793d22382220636c6173733d226f75746c696e65222077696474683d223122206865696768743d2231222f3e3c7265637420783d22382220793d22382220636c6173733d226f75746c696e65222077696474683d223222206865696768743d2231222f3e3c706f6c79676f6e20636c6173733d226f75746c696e652220706f696e74733d22312c3020302c3020302c3220302c3320312c3320312c32222f3e3c7265637420783d22322220793d22372220636c6173733d22737431222077696474683d223122206865696768743d2231222f3e3c706f6c79676f6e20636c6173733d226f75746c696e652220706f696e74733d22322c3320312c3320312c3520312c3720322c3720322c35222f3e3c7265637420783d2231362220793d22382220636c6173733d226f75746c696e65222077696474683d223122206865696768743d2231222f3e3c7265637420783d2232302220793d22302220636c6173733d226f75746c696e65222077696474683d223122206865696768743d2231222f3e3c706f6c79676f6e20636c6173733d226f75746c696e652220706f696e74733d2231302c392031302c31302031322c31302031362c31302031362c392031322c39222f3e3c706f6c79676f6e20636c6173733d226f75746c696e652220706f696e74733d2231392c322031392c352031392c362032302c362032302c352032302c322032302c312031392c31222f3e3c7265637420783d2231382220793d22362220636c6173733d226f75746c696e65222077696474683d223122206865696768743d2231222f3e3c7265637420783d2231372220793d22372220636c6173733d226f75746c696e65222077696474683d223122206865696768743d2231222f3e3c2f673e3c672066696c6c3d2723464646464646273e3c7061746820643d274d30203048315631483056307a4d302031483156322e30303030364c3220322e303030303656342e303030303648314c3120332e3030303036483056317a272f3e3c2f673e3c706f6c79676f6e20636c6173733d226675722220706f696e74733d2232322031203232203020323120302032302030203138203020313720302031352030203134203020313020302039203020362030203520302033203020322030203220312031203120312032203120342031203520312037203220372032203820332038203320392035203920362039203920392031302039203130203820313220382031322039203134203920313520392031372039203138203920313820382032302038203230203720323120372032312036203233203620323320352032332034203233203220323320312032322031222f3e203c7265637420636c6173733d226f75746c696e652220783d22312220793d2237222077696474683d223122206865696768743d2231222f3e3c7265637420636c6173733d226f75746c696e652220783d22322220793d2238222077696474683d223122206865696768743d2231222f3e3c706f6c79676f6e20636c6173733d226f75746c696e652220706f696e74733d2231203220322032203220312031203120312032203020322030203520302037203120372031203520312032222f3e3c706f6c79676f6e20636c6173733d22636c732d322220706f696e74733d2232312037203230203720323020382031382038203138203920313420392031322039203132203130203134203130203138203130203230203130203230203920323120392032312038203232203820323220372032332037203233203620323120362032312037222f3e203c706f6c79676f6e20636c6173733d226f75746c696e652220706f696e74733d2232332032203233203520323320362032342036203234203520323420322032332032222f3e3c7265637420636c6173733d226f75746c696e652220783d2231302220793d2238222077696474683d223222206865696768743d2231222f3e3c706f6c79676f6e20636c6173733d226f75746c696e652220706f696e74733d223520392033203920332031302035203130203920313020313020313020313020392039203920352039222f3e3c706f6c79676f6e20636c6173733d22636c732d322220706f696e74733d2232332032203233203120323220312032312031203231203220323220322032332032222f3e203c706f6c79676f6e20636c6173733d226f75746c696e652220706f696e74733d22342031203420302033203020322030203220312033203120342031222f3e",
    "linkReferences": {},
    "deployedLinkReferences": {}
}